{"abi":[{"type":"constructor","inputs":[{"name":"_functionsRouter","type":"address","internalType":"address"},{"name":"_usdcToken","type":"address","internalType":"address"},{"name":"_config","type":"tuple","internalType":"struct ITunnlTwitterOffers.Config","components":[{"name":"automationUpkeepBatchSize","type":"uint8","internalType":"uint8"},{"name":"advertiserFeePercentageBP","type":"uint16","internalType":"uint16"},{"name":"creatorFeePercentageBP","type":"uint16","internalType":"uint16"},{"name":"functionsCallbackGasLimit","type":"uint24","internalType":"uint24"},{"name":"flatFeeUsdc","type":"uint32","internalType":"uint32"},{"name":"minOfferDurationSeconds","type":"uint32","internalType":"uint32"},{"name":"minAcceptanceDurationSeconds","type":"uint32","internalType":"uint32"},{"name":"maxVerificationDelaySeconds","type":"uint32","internalType":"uint32"},{"name":"functionsSubscriptionId","type":"uint64","internalType":"uint64"},{"name":"functionsDonId","type":"bytes32","internalType":"bytes32"},{"name":"functionsEncryptedSecretsReference","type":"bytes","internalType":"bytes"},{"name":"functionsVerificationRequestScript","type":"string","internalType":"string"},{"name":"functionsPayoutRequestScript","type":"string","internalType":"string"}]}],"stateMutability":"nonpayable"},{"type":"function","name":"acceptOffer","inputs":[{"name":"offerId","type":"bytes32","internalType":"bytes32"},{"name":"contentCreator","type":"address","internalType":"address"}],"outputs":[],"stateMutability":"nonpayable"},{"type":"function","name":"addAdmin","inputs":[{"name":"_admin","type":"address","internalType":"address"}],"outputs":[],"stateMutability":"nonpayable"},{"type":"function","name":"batchCreateOffers","inputs":[{"name":"offers","type":"tuple[]","internalType":"struct ITunnlTwitterOffers.CreateOfferStruct[]","components":[{"name":"offerId","type":"bytes32","internalType":"bytes32"},{"name":"brand","type":"address","internalType":"address"},{"name":"maxPaymentUsdc","type":"uint256","internalType":"uint256"},{"name":"acceptanceDurationSeconds","type":"uint32","internalType":"uint32"},{"name":"offerDurationSeconds","type":"uint32","internalType":"uint32"}]}],"outputs":[],"stateMutability":"nonpayable"},{"type":"function","name":"cancelOffer","inputs":[{"name":"offerId","type":"bytes32","internalType":"bytes32"}],"outputs":[],"stateMutability":"nonpayable"},{"type":"function","name":"checkUpkeep","inputs":[{"name":"","type":"bytes","internalType":"bytes"}],"outputs":[{"name":"upkeepNeeded","type":"bool","internalType":"bool"},{"name":"performData","type":"bytes","internalType":"bytes"}],"stateMutability":"view"},{"type":"function","name":"createOffer","inputs":[{"name":"offerId","type":"bytes32","internalType":"bytes32"},{"name":"maxPaymentUsdc","type":"uint256","internalType":"uint256"},{"name":"acceptanceDurationSeconds","type":"uint32","internalType":"uint32"},{"name":"_offerDurationSeconds","type":"uint32","internalType":"uint32"}],"outputs":[],"stateMutability":"nonpayable"},{"type":"function","name":"createOfferWithPermit","inputs":[{"name":"offerId","type":"bytes32","internalType":"bytes32"},{"name":"brand","type":"address","internalType":"address"},{"name":"maxPaymentUsdc","type":"uint256","internalType":"uint256"},{"name":"acceptanceDurationSeconds","type":"uint32","internalType":"uint32"},{"name":"_offerDurationSeconds","type":"uint32","internalType":"uint32"},{"name":"deadline","type":"uint256","internalType":"uint256"},{"name":"v","type":"uint8","internalType":"uint8"},{"name":"r","type":"bytes32","internalType":"bytes32"},{"name":"s","type":"bytes32","internalType":"bytes32"}],"outputs":[],"stateMutability":"nonpayable"},{"type":"function","name":"getConfig","inputs":[],"outputs":[{"name":"","type":"tuple","internalType":"struct ITunnlTwitterOffers.Config","components":[{"name":"automationUpkeepBatchSize","type":"uint8","internalType":"uint8"},{"name":"advertiserFeePercentageBP","type":"uint16","internalType":"uint16"},{"name":"creatorFeePercentageBP","type":"uint16","internalType":"uint16"},{"name":"functionsCallbackGasLimit","type":"uint24","internalType":"uint24"},{"name":"flatFeeUsdc","type":"uint32","internalType":"uint32"},{"name":"minOfferDurationSeconds","type":"uint32","internalType":"uint32"},{"name":"minAcceptanceDurationSeconds","type":"uint32","internalType":"uint32"},{"name":"maxVerificationDelaySeconds","type":"uint32","internalType":"uint32"},{"name":"functionsSubscriptionId","type":"uint64","internalType":"uint64"},{"name":"functionsDonId","type":"bytes32","internalType":"bytes32"},{"name":"functionsEncryptedSecretsReference","type":"bytes","internalType":"bytes"},{"name":"functionsVerificationRequestScript","type":"string","internalType":"string"},{"name":"functionsPayoutRequestScript","type":"string","internalType":"string"}]}],"stateMutability":"view"},{"type":"function","name":"getOffers","inputs":[{"name":"offerIds","type":"bytes32[]","internalType":"bytes32[]"}],"outputs":[{"name":"","type":"tuple[]","internalType":"struct ITunnlTwitterOffers.Offer[]","components":[{"name":"status","type":"uint8","internalType":"enum ITunnlTwitterOffers.Status"},{"name":"advertiserFeePercentageBP","type":"uint16","internalType":"uint16"},{"name":"creatorFeePercentageBP","type":"uint16","internalType":"uint16"},{"name":"advertiser","type":"address","internalType":"address"},{"name":"contentCreator","type":"address","internalType":"address"},{"name":"flatFeeUsdc","type":"uint32","internalType":"uint32"},{"name":"creationDate","type":"uint32","internalType":"uint32"},{"name":"acceptanceExpirationDate","type":"uint32","internalType":"uint32"},{"name":"payoutDate","type":"uint32","internalType":"uint32"},{"name":"dateToAttemptVerification","type":"uint32","internalType":"uint32"},{"name":"maxValueUsdc","type":"uint256","internalType":"uint256"},{"name":"amountPaidUsdc","type":"uint256","internalType":"uint256"},{"name":"verificationFailureMessage","type":"string","internalType":"string"},{"name":"payoutFailureMessage","type":"string","internalType":"string"},{"name":"offerDurationSeconds","type":"uint32","internalType":"uint32"}]}],"stateMutability":"view"},{"type":"function","name":"handleOracleFulfillment","inputs":[{"name":"requestId","type":"bytes32","internalType":"bytes32"},{"name":"response","type":"bytes","internalType":"bytes"},{"name":"err","type":"bytes","internalType":"bytes"}],"outputs":[],"stateMutability":"nonpayable"},{"type":"function","name":"owner","inputs":[],"outputs":[{"name":"","type":"address","internalType":"address"}],"stateMutability":"view"},{"type":"function","name":"performUpkeep","inputs":[{"name":"performData","type":"bytes","internalType":"bytes"}],"outputs":[],"stateMutability":"nonpayable"},{"type":"function","name":"removeAdmin","inputs":[{"name":"_admin","type":"address","internalType":"address"}],"outputs":[],"stateMutability":"nonpayable"},{"type":"function","name":"renounceOwnership","inputs":[],"outputs":[],"stateMutability":"nonpayable"},{"type":"function","name":"retryRequests","inputs":[{"name":"offerIds","type":"bytes32[]","internalType":"bytes32[]"}],"outputs":[],"stateMutability":"nonpayable"},{"type":"function","name":"s_config","inputs":[],"outputs":[{"name":"automationUpkeepBatchSize","type":"uint8","internalType":"uint8"},{"name":"advertiserFeePercentageBP","type":"uint16","internalType":"uint16"},{"name":"creatorFeePercentageBP","type":"uint16","internalType":"uint16"},{"name":"functionsCallbackGasLimit","type":"uint24","internalType":"uint24"},{"name":"flatFeeUsdc","type":"uint32","internalType":"uint32"},{"name":"minOfferDurationSeconds","type":"uint32","internalType":"uint32"},{"name":"minAcceptanceDurationSeconds","type":"uint32","internalType":"uint32"},{"name":"maxVerificationDelaySeconds","type":"uint32","internalType":"uint32"},{"name":"functionsSubscriptionId","type":"uint64","internalType":"uint64"},{"name":"functionsDonId","type":"bytes32","internalType":"bytes32"},{"name":"functionsEncryptedSecretsReference","type":"bytes","internalType":"bytes"},{"name":"functionsVerificationRequestScript","type":"string","internalType":"string"},{"name":"functionsPayoutRequestScript","type":"string","internalType":"string"}],"stateMutability":"view"},{"type":"function","name":"setConfig","inputs":[{"name":"_config","type":"tuple","internalType":"struct ITunnlTwitterOffers.Config","components":[{"name":"automationUpkeepBatchSize","type":"uint8","internalType":"uint8"},{"name":"advertiserFeePercentageBP","type":"uint16","internalType":"uint16"},{"name":"creatorFeePercentageBP","type":"uint16","internalType":"uint16"},{"name":"functionsCallbackGasLimit","type":"uint24","internalType":"uint24"},{"name":"flatFeeUsdc","type":"uint32","internalType":"uint32"},{"name":"minOfferDurationSeconds","type":"uint32","internalType":"uint32"},{"name":"minAcceptanceDurationSeconds","type":"uint32","internalType":"uint32"},{"name":"maxVerificationDelaySeconds","type":"uint32","internalType":"uint32"},{"name":"functionsSubscriptionId","type":"uint64","internalType":"uint64"},{"name":"functionsDonId","type":"bytes32","internalType":"bytes32"},{"name":"functionsEncryptedSecretsReference","type":"bytes","internalType":"bytes"},{"name":"functionsVerificationRequestScript","type":"string","internalType":"string"},{"name":"functionsPayoutRequestScript","type":"string","internalType":"string"}]}],"outputs":[],"stateMutability":"nonpayable"},{"type":"function","name":"setVerificationStatus","inputs":[{"name":"offerId","type":"bytes32","internalType":"bytes32"},{"name":"isTweetVerified","type":"bool","internalType":"bool"}],"outputs":[],"stateMutability":"nonpayable"},{"type":"function","name":"submitTweet","inputs":[{"name":"offerId","type":"bytes32","internalType":"bytes32"},{"name":"verificationDelaySeconds","type":"uint32","internalType":"uint32"}],"outputs":[],"stateMutability":"nonpayable"},{"type":"function","name":"transferOwnership","inputs":[{"name":"newOwner","type":"address","internalType":"address"}],"outputs":[],"stateMutability":"nonpayable"},{"type":"function","name":"version","inputs":[],"outputs":[{"name":"","type":"string","internalType":"string"}],"stateMutability":"view"},{"type":"event","name":"Accepted","inputs":[{"name":"offerId","type":"bytes32","indexed":true,"internalType":"bytes32"},{"name":"payoutDate","type":"uint32","indexed":false,"internalType":"uint32"},{"name":"contentCreator","type":"address","indexed":false,"internalType":"address"}],"anonymous":false},{"type":"event","name":"Created","inputs":[{"name":"offerId","type":"bytes32","indexed":true,"internalType":"bytes32"},{"name":"offer","type":"tuple","indexed":false,"internalType":"struct ITunnlTwitterOffers.Offer","components":[{"name":"status","type":"uint8","internalType":"enum ITunnlTwitterOffers.Status"},{"name":"advertiserFeePercentageBP","type":"uint16","internalType":"uint16"},{"name":"creatorFeePercentageBP","type":"uint16","internalType":"uint16"},{"name":"advertiser","type":"address","internalType":"address"},{"name":"contentCreator","type":"address","internalType":"address"},{"name":"flatFeeUsdc","type":"uint32","internalType":"uint32"},{"name":"creationDate","type":"uint32","internalType":"uint32"},{"name":"acceptanceExpirationDate","type":"uint32","internalType":"uint32"},{"name":"payoutDate","type":"uint32","internalType":"uint32"},{"name":"dateToAttemptVerification","type":"uint32","internalType":"uint32"},{"name":"maxValueUsdc","type":"uint256","internalType":"uint256"},{"name":"amountPaidUsdc","type":"uint256","internalType":"uint256"},{"name":"verificationFailureMessage","type":"string","internalType":"string"},{"name":"payoutFailureMessage","type":"string","internalType":"string"},{"name":"offerDurationSeconds","type":"uint32","internalType":"uint32"}]}],"anonymous":false},{"type":"event","name":"OfferStatus","inputs":[{"name":"offerId","type":"bytes32","indexed":true,"internalType":"bytes32"},{"name":"previousStatus","type":"uint8","indexed":false,"internalType":"enum ITunnlTwitterOffers.Status"},{"name":"currentStatus","type":"uint8","indexed":false,"internalType":"enum ITunnlTwitterOffers.Status"}],"anonymous":false},{"type":"event","name":"OwnershipTransferred","inputs":[{"name":"previousOwner","type":"address","indexed":true,"internalType":"address"},{"name":"newOwner","type":"address","indexed":true,"internalType":"address"}],"anonymous":false},{"type":"event","name":"PreviousConfig","inputs":[{"name":"previousConfig","type":"tuple","indexed":false,"internalType":"struct ITunnlTwitterOffers.Config","components":[{"name":"automationUpkeepBatchSize","type":"uint8","internalType":"uint8"},{"name":"advertiserFeePercentageBP","type":"uint16","internalType":"uint16"},{"name":"creatorFeePercentageBP","type":"uint16","internalType":"uint16"},{"name":"functionsCallbackGasLimit","type":"uint24","internalType":"uint24"},{"name":"flatFeeUsdc","type":"uint32","internalType":"uint32"},{"name":"minOfferDurationSeconds","type":"uint32","internalType":"uint32"},{"name":"minAcceptanceDurationSeconds","type":"uint32","internalType":"uint32"},{"name":"maxVerificationDelaySeconds","type":"uint32","internalType":"uint32"},{"name":"functionsSubscriptionId","type":"uint64","internalType":"uint64"},{"name":"functionsDonId","type":"bytes32","internalType":"bytes32"},{"name":"functionsEncryptedSecretsReference","type":"bytes","internalType":"bytes"},{"name":"functionsVerificationRequestScript","type":"string","internalType":"string"},{"name":"functionsPayoutRequestScript","type":"string","internalType":"string"}]}],"anonymous":false},{"type":"event","name":"PreviousOffer","inputs":[{"name":"offerId","type":"bytes32","indexed":true,"internalType":"bytes32"},{"name":"previousOffer","type":"tuple","indexed":false,"internalType":"struct ITunnlTwitterOffers.Offer","components":[{"name":"status","type":"uint8","internalType":"enum ITunnlTwitterOffers.Status"},{"name":"advertiserFeePercentageBP","type":"uint16","internalType":"uint16"},{"name":"creatorFeePercentageBP","type":"uint16","internalType":"uint16"},{"name":"advertiser","type":"address","internalType":"address"},{"name":"contentCreator","type":"address","internalType":"address"},{"name":"flatFeeUsdc","type":"uint32","internalType":"uint32"},{"name":"creationDate","type":"uint32","internalType":"uint32"},{"name":"acceptanceExpirationDate","type":"uint32","internalType":"uint32"},{"name":"payoutDate","type":"uint32","internalType":"uint32"},{"name":"dateToAttemptVerification","type":"uint32","internalType":"uint32"},{"name":"maxValueUsdc","type":"uint256","internalType":"uint256"},{"name":"amountPaidUsdc","type":"uint256","internalType":"uint256"},{"name":"verificationFailureMessage","type":"string","internalType":"string"},{"name":"payoutFailureMessage","type":"string","internalType":"string"},{"name":"offerDurationSeconds","type":"uint32","internalType":"uint32"}]}],"anonymous":false},{"type":"event","name":"RequestFulfilled","inputs":[{"name":"id","type":"bytes32","indexed":true,"internalType":"bytes32"}],"anonymous":false},{"type":"event","name":"RequestSent","inputs":[{"name":"offerId","type":"bytes32","indexed":true,"internalType":"bytes32"},{"name":"functionsRequestId","type":"bytes32","indexed":true,"internalType":"bytes32"},{"name":"offerStatus","type":"uint8","indexed":false,"internalType":"enum ITunnlTwitterOffers.Status"}],"anonymous":false},{"type":"event","name":"RequestSent","inputs":[{"name":"id","type":"bytes32","indexed":true,"internalType":"bytes32"}],"anonymous":false},{"type":"event","name":"Response","inputs":[{"name":"offerId","type":"bytes32","indexed":true,"internalType":"bytes32"},{"name":"functionsRequestId","type":"bytes32","indexed":true,"internalType":"bytes32"},{"name":"previousStatus","type":"uint8","indexed":false,"internalType":"enum ITunnlTwitterOffers.Status"},{"name":"newStatus","type":"uint8","indexed":false,"internalType":"enum ITunnlTwitterOffers.Status"}],"anonymous":false},{"type":"event","name":"Submitted","inputs":[{"name":"offerId","type":"bytes32","indexed":true,"internalType":"bytes32"}],"anonymous":false},{"type":"error","name":"AddressEmptyCode","inputs":[{"name":"target","type":"address","internalType":"address"}]},{"type":"error","name":"AddressInsufficientBalance","inputs":[{"name":"account","type":"address","internalType":"address"}]},{"type":"error","name":"EmptyArgs","inputs":[]},{"type":"error","name":"EmptySource","inputs":[]},{"type":"error","name":"FailedInnerCall","inputs":[]},{"type":"error","name":"NoInlineSecrets","inputs":[]},{"type":"error","name":"OnlyRouterCanFulfill","inputs":[]},{"type":"error","name":"OwnableInvalidOwner","inputs":[{"name":"owner","type":"address","internalType":"address"}]},{"type":"error","name":"OwnableUnauthorizedAccount","inputs":[{"name":"account","type":"address","internalType":"address"}]},{"type":"error","name":"SafeERC20FailedOperation","inputs":[{"name":"token","type":"address","internalType":"address"}]}],"bytecode":{"object":"0x60a06040523480156200001157600080fd5b50604051620062c4380380620062c4833981016040819052620000349162000404565b6001600160a01b03831660805233806200006857604051631e4fbdf760e01b81526000600482015260240160405180910390fd5b62000073816200023d565b50600180546001600160a01b0384166001600160a01b0319918216178255336000818152600c6020908152604091829020805460ff19169095179094556004805490931690911790915582516005805493850151928501516060860151608087015160a088015160c089015160e08a01516101008b8101516001600160401b0316600160c01b026001600160c01b0363ffffffff938416600160a01b0263ffffffff60a01b19958516600160801b0295909516600160801b600160c01b03199685166c010000000000000000000000000263ffffffff60601b1995909816680100000000000000000294909416600160401b600160801b031962ffffff909916650100000000000262ffffff60281b1961ffff9b8c166301000000021667ffffffffff000000199b909e1690940262ffffff19909e1660ff9c909c169b909b179c909c17979097169990991798909817939093169590951717939093169390931791909117929092161781556101208201516006556101408201518291906007906200020090826200063d565b5061016082015160038201906200021890826200063d565b5061018082015160048201906200023090826200063d565b5090505050505062000709565b600080546001600160a01b038381166001600160a01b0319831681178455604051919092169283917f8be0079c531659141344cd1fd0a4f28419497f9722a3daafe3b4186f6b6457e09190a35050565b80516001600160a01b0381168114620002a557600080fd5b919050565b634e487b7160e01b600052604160045260246000fd5b6040516101a081016001600160401b0381118282101715620002e657620002e6620002aa565b60405290565b805160ff81168114620002a557600080fd5b805161ffff81168114620002a557600080fd5b805162ffffff81168114620002a557600080fd5b805163ffffffff81168114620002a557600080fd5b80516001600160401b0381168114620002a557600080fd5b600082601f8301126200036457600080fd5b81516001600160401b0380821115620003815762000381620002aa565b604051601f8301601f19908116603f01168101908282118183101715620003ac57620003ac620002aa565b8160405283815260209250866020858801011115620003ca57600080fd5b600091505b83821015620003ee5785820183015181830184015290820190620003cf565b6000602085830101528094505050505092915050565b6000806000606084860312156200041a57600080fd5b62000425846200028d565b925062000435602085016200028d565b60408501519092506001600160401b03808211156200045357600080fd5b908501906101a082880312156200046957600080fd5b62000473620002c0565b6200047e83620002ec565b81526200048e60208401620002fe565b6020820152620004a160408401620002fe565b6040820152620004b46060840162000311565b6060820152620004c76080840162000325565b6080820152620004da60a0840162000325565b60a0820152620004ed60c0840162000325565b60c08201526200050060e0840162000325565b60e0820152610100620005158185016200033a565b90820152610120838101519082015261014080840151838111156200053957600080fd5b620005478a82870162000352565b82840152505061016080840151838111156200056257600080fd5b620005708a82870162000352565b82840152505061018080840151838111156200058b57600080fd5b620005998a82870162000352565b8284015250508093505050509250925092565b600181811c90821680620005c157607f821691505b602082108103620005e257634e487b7160e01b600052602260045260246000fd5b50919050565b601f82111562000638576000816000526020600020601f850160051c81016020861015620006135750805b601f850160051c820191505b8181101562000634578281556001016200061f565b5050505b505050565b81516001600160401b03811115620006595762000659620002aa565b62000671816200066a8454620005ac565b84620005e8565b602080601f831160018114620006a95760008415620006905750858301515b600019600386901b1c1916600185901b17855562000634565b600085815260208120601f198616915b82811015620006da57888601518255948401946001909101908401620006b9565b5085821015620006f95787850151600019600388901b60f8161c191681555b5050505050600190811b01905550565b608051615b986200072c6000396000818161055e0152613e4a0152615b986000f3fe608060405234801561001057600080fd5b50600436106101375760003560e01c8063715018a6116100b8578063c3f909d41161007c578063c3f909d4146102b3578063ce48563d146102c8578063f2fde38b146102db578063f952279e146102ee578063fcc959de14610301578063ffdd08e01461031457600080fd5b8063715018a6146102575780638320f9181461025f57806387308d26146102725780638da5cb5b14610285578063c2e3da76146102a057600080fd5b80634585e33b116100ff5780634585e33b146101b457806354fd4d50146101c757806360457034146102105780636e04ff0d14610223578063704802751461024457600080fd5b8063088070f51461013c5780630ca76175146101665780631785f53c1461017b5780632652c0de1461018e5780632e4a876f146101a1575b600080fd5b610144610334565b60405161015d9d9c9b9a999897969594939291906146c9565b60405180910390f35b610179610174366004614868565b610553565b005b6101796101893660046148f0565b6105d7565b61017961019c36600461490b565b610600565b6101796101af366004614967565b610652565b6101796101c23660046149f4565b610c41565b6102036040518060400160405280601881526020017f54756e6e6c547769747465724f666665727320312e302e30000000000000000081525081565b60405161015d9190614a65565b61017961021e366004614a86565b610e48565b6102366102313660046149f4565b61106f565b60405161015d929190614ab6565b6101796102523660046148f0565b6111d3565b6101796111ff565b61017961026d366004614af4565b611213565b610179610280366004614be3565b611464565b6000546040516001600160a01b03909116815260200161015d565b6101796102ae366004614c2d565b6119b2565b6102bb611b7a565b60405161015d9190614c8f565b6101796102d6366004614db2565b611e4a565b6101796102e93660046148f0565b612049565b6101796102fc366004614dd7565b612087565b61017961030f366004614df0565b612492565b610327610322366004614c2d565b612945565b60405161015d9190614e54565b600580546006546007805460ff841694610100850461ffff908116956301000000810490911694600160281b820462ffffff1694600160401b830463ffffffff90811695600160601b8504821695600160801b8604831695600160a01b810490931694600160c01b9093046001600160401b03169390916103b490614fad565b80601f01602080910402602001604051908101604052809291908181526020018280546103e090614fad565b801561042d5780601f106104025761010080835404028352916020019161042d565b820191906000526020600020905b81548152906001019060200180831161041057829003601f168201915b50505050509080600301805461044290614fad565b80601f016020809104026020016040519081016040528092919081815260200182805461046e90614fad565b80156104bb5780601f10610490576101008083540402835291602001916104bb565b820191906000526020600020905b81548152906001019060200180831161049e57829003601f168201915b5050505050908060040180546104d090614fad565b80601f01602080910402602001604051908101604052809291908181526020018280546104fc90614fad565b80156105495780601f1061051e57610100808354040283529160200191610549565b820191906000526020600020905b81548152906001019060200180831161052c57829003601f168201915b505050505090508d565b336001600160a01b037f0000000000000000000000000000000000000000000000000000000000000000161461059c5760405163c6829f8360e01b815260040160405180910390fd5b6105a7838383612c91565b60405183907f85e1543bf2f84fe80c6badbce3648c8539ad1df4d2b3d822938ca0538be727e690600090a2505050565b6105df6130c0565b6001600160a01b03166000908152600c60205260409020805460ff19169055565b6106086130c0565b7fd0c81e4eb8cc261800855d0e2f397fd118085274349a8a7d2ed132ef83f43f5b60056040516106389190615064565b60405180910390a180600561064d8282615315565b505050565b886106785760405162461bcd60e51b815260040161066f9061551e565b60405180910390fd5b6000898152600a6020526040902060010154600160c01b900463ffffffff16156106b45760405162461bcd60e51b815260040161066f90615547565b60055463ffffffff600160801b909104811690871610156106e75760405162461bcd60e51b815260040161066f90615575565b60055463ffffffff600160601b9091048116908616101561071a5760405162461bcd60e51b815260040161066f906155ac565b6005546000906127109061073790610100900461ffff168a6155f9565b6107419190615626565b600554909150600090829061076390600160401b900463ffffffff168b61563a565b61076d919061563a565b60015460405163d505accf60e01b8152336004820152306024820152604481018390526064810189905260ff8816608482015260a4810187905260c481018690529192506001600160a01b03169063d505accf9060e401600060405180830381600087803b1580156107de57600080fd5b505af11580156107f2573d6000803e3d6000fd5b5050600154604051636eb1769f60e11b81526001600160a01b038e81166004830152306024830152859450909116915063dd62ed3e90604401602060405180830381865afa158015610848573d6000803e3d6000fd5b505050506040513d601f19601f8201168201806040525081019061086c919061564d565b10156108ba5760405162461bcd60e51b815260206004820152601b60248201527f496e73756666696369656e74205553444320616c6c6f77616e63650000000000604482015260640161066f565b6001546040516370a0823160e01b81526001600160a01b038c81166004830152839216906370a0823190602401602060405180830381865afa158015610904573d6000803e3d6000fd5b505050506040513d601f19601f82011682018060405250810190610928919061564d565b10156109725760405162461bcd60e51b8152602060048201526019602482015278496e73756666696369656e7420555344432062616c616e636560381b604482015260640161066f565b604080516101e08101909152806000815260055461ffff610100820481166020840152630100000082041660408301526001600160a01b038d1660608301526000608083015263ffffffff600160401b909104811660a08301524290811660c083015260e0909101906109e6908b90615666565b63ffffffff908116825260006020808401829052604080850183905260608501879052608085018390528051808301825283815260a08601528051808301825283815260c0860152928c1660e0909401939093528e8152600a92839052208251815491929091839160ff19909116906001908490811115610a6957610a69614e1c565b0217905550602082015181546040840151606085015164ffffffff001990921661010061ffff948516810264ffff000000191691909117630100000094909216939093021765010000000000600160c81b031916600160281b6001600160a01b0392831602178355608084015160018401805460a087015160c088015160e0890151949095166001600160c01b031990921691909117600160a01b63ffffffff92831602176001600160c01b0316600160c01b948216949094026001600160e01b031693909317600160e01b928416929092029190911790559083015160028301805461012086015192841667ffffffffffffffff19909116176401000000009290931691909102919091179055610140820151600382015561016082015160048201556101808201516005820190610ba29082615683565b506101a08201516006820190610bb89082615683565b506101c091909101516007909101805463ffffffff191663ffffffff928316179055610be9906002908d906130ed16565b508a7f1d6e80a6458c4893cdbcbe3c50cb973b0dc488aa78707323135c5dd8ae2f4df8600a60008e8152602001908152602001600020604051610c2c9190615742565b60405180910390a25050505050505050505050565b6000610c4f82840184615862565b905060005b8151811015610e42576000828281518110610c7157610c716158f2565b6020908102919091018101516000818152600a90925260409091208054600290910154919250610cb49160ff90911690640100000000900463ffffffff16613100565b15610cc957610cc4816000613130565b610e39565b6000818152600a6020526040902080546002820154600190920154610d049260ff9092169163ffffffff90811691600160e01b9004166135bc565b15610e00576000818152600a60205260409020805460ff19811660091790915560ff16610d3260028361366b565b50600081600a811115610d4757610d47614e1c565b03610d5a57610d5582613677565b610dbf565b6000828152600a602052604081206001810154600390910154610d8a91600160a01b900463ffffffff1690615908565b6000848152600a6020526040902054600154919250610dbd916001600160a01b0390811691600160281b900416836137e3565b505b817fd5134925260b35dade0b2f16307d76b912819d60fc8c7efc607adec824899de4826009604051610df292919061591b565b60405180910390a250610e39565b6000818152600a602052604090208054600290910154610e299160ff169063ffffffff16613842565b15610e3957610e39816001613130565b50600101610c54565b50505050565b336000908152600c602052604090205460ff1680610e7057506004546001600160a01b031633145b610e8c5760405162461bcd60e51b815260040161066f90615936565b6000828152600a602052604090206002015463ffffffff164210610edc5760405162461bcd60e51b8152602060048201526007602482015266115e1c1a5c995960ca1b604482015260640161066f565b60016000838152600a602081905260409091205460ff1690811115610f0357610f03614e1c565b1480610f33575060026000838152600a602081905260409091205460ff1690811115610f3157610f31614e1c565b145b80610f62575060036000838152600a602081905260409091205460ff1690811115610f6057610f60614e1c565b145b80610f91575060046000838152600a602081905260409091205460ff1690811115610f8f57610f8f614e1c565b145b80610fc0575060056000838152600a602081905260409091205460ff1690811115610fbe57610fbe614e1c565b145b610ffd5760405162461bcd60e51b815260206004820152600e60248201526d496e76616c69642053746174757360901b604482015260640161066f565b60056000838152600a602081905260409091205460ff169081111561102457611024614e1c565b0361104c5780611048576000828152600a60205260409020805460ff191660041790555b5050565b8015611048576000828152600a60205260409020805460ff191660051790555050565b6040805160008082526020820190925260609060005b61108f600261385c565b8110156111a05760006110a3600283613866565b6000818152600a6020526040902080546002909101549192506110d99160ff90911690640100000000900463ffffffff16613100565b8061111a57506000818152600a602052604090208054600282015460019092015461111a9260ff9092169163ffffffff90811691600160e01b9004166135bc565b8061114957506000818152600a6020526040902080546002909101546111499160ff169063ffffffff16613842565b15611197576111588382613872565b600554815191945060ff1690036111975760018360405160200161117c9190615959565b604051602081830303815290604052945094505050506111cc565b50600101611085565b506000815111816040516020016111b79190615959565b60405160208183030381529060405292509250505b9250929050565b6111db6130c0565b6001600160a01b03166000908152600c60205260409020805460ff19166001179055565b6112076130c0565b6112116000613939565b565b805181905b8151811015611373576000828281518110611235576112356158f2565b60200260200101516000015190506000801b838381518110611259576112596158f2565b602002602001015160000151036112825760405162461bcd60e51b815260040161066f9061551e565b6005548351600160801b90910463ffffffff16908490849081106112a8576112a86158f2565b60200260200101516060015163ffffffff1610156112d85760405162461bcd60e51b815260040161066f90615575565b6005548351600160601b90910463ffffffff16908490849081106112fe576112fe6158f2565b60200260200101516080015163ffffffff16101561132e5760405162461bcd60e51b815260040161066f906155ac565b6000818152600a6020526040902060010154600160c01b900463ffffffff161561136a5760405162461bcd60e51b815260040161066f90615547565b50600101611218565b506004825111156113d05760405162461bcd60e51b815260206004820152602160248201527f546f6f206d616e79206f666665727320696e20612073696e676c6520626174636044820152600d60fb1b606482015260840161066f565b60005b825181101561064d5761145c8382815181106113f1576113f16158f2565b60200260200101516000015184838151811061140f5761140f6158f2565b60200260200101516040015185848151811061142d5761142d6158f2565b60200260200101516060015186858151811061144b5761144b6158f2565b602002602001015160800151611464565b6001016113d3565b836114815760405162461bcd60e51b815260040161066f9061551e565b6000848152600a6020526040902060010154600160c01b900463ffffffff16156114bd5760405162461bcd60e51b815260040161066f90615547565b60055463ffffffff600160801b909104811690831610156114f05760405162461bcd60e51b815260040161066f90615575565b60055463ffffffff600160601b909104811690821610156115235760405162461bcd60e51b815260040161066f906155ac565b6005546000906127109061154090610100900461ffff16866155f9565b61154a9190615626565b600554909150600090829061156c90600160401b900463ffffffff168761563a565b611576919061563a565b600154604051636eb1769f60e11b815233600482015230602482015291925082916001600160a01b039091169063dd62ed3e90604401602060405180830381865afa1580156115c9573d6000803e3d6000fd5b505050506040513d601f19601f820116820180604052508101906115ed919061564d565b101561163b5760405162461bcd60e51b815260206004820152601b60248201527f496e73756666696369656e74205553444320616c6c6f77616e63650000000000604482015260640161066f565b6001546040516370a0823160e01b815233600482015282916001600160a01b0316906370a0823190602401602060405180830381865afa158015611683573d6000803e3d6000fd5b505050506040513d601f19601f820116820180604052508101906116a7919061564d565b10156116f15760405162461bcd60e51b8152602060048201526019602482015278496e73756666696369656e7420555344432062616c616e636560381b604482015260640161066f565b604080516101e08101909152806000815260055461ffff610100820481166020840152630100000082041660408301523360608301526000608083015263ffffffff600160401b909104811660a08301524290811660c083015260e09091019061175c908790615666565b63ffffffff908116825260006020808401829052604080850183905260608501879052608085018390528051808301825283815260a08601528051808301825283815260c086015292881660e090940193909352898152600a92839052208251815491929091839160ff199091169060019084908111156117df576117df614e1c565b0217905550602082015181546040840151606085015164ffffffff001990921661010061ffff948516810264ffff000000191691909117630100000094909216939093021765010000000000600160c81b031916600160281b6001600160a01b0392831602178355608084015160018401805460a087015160c088015160e0890151949095166001600160c01b031990921691909117600160a01b63ffffffff92831602176001600160c01b0316600160c01b948216949094026001600160e01b031693909317600160e01b928416929092029190911790559083015160028301805461012086015192841667ffffffffffffffff199091161764010000000092909316919091029190911790556101408201516003820155610160820151600482015561018082015160058201906119189082615683565b506101a0820151600682019061192e9082615683565b506101c091909101516007909101805463ffffffff191663ffffffff92831617905561195f9060029088906130ed16565b50857f1d6e80a6458c4893cdbcbe3c50cb973b0dc488aa78707323135c5dd8ae2f4df8600a60008981526020019081526020016000206040516119a29190615742565b60405180910390a2505050505050565b336000908152600c602052604090205460ff16806119da57506004546001600160a01b031633145b6119f65760405162461bcd60e51b815260040161066f90615936565b60005b8181101561064d576000838383818110611a1557611a156158f2565b60200291909101359150600490506000828152600a602081905260409091205460ff1690811115611a4857611a48614e1c565b1480611a78575060036000828152600a602081905260409091205460ff1690811115611a7657611a76614e1c565b145b80611aa7575060026000828152600a602081905260409091205460ff1690811115611aa557611aa5614e1c565b145b15611ab757611ab7816000613130565b60076000828152600a602081905260409091205460ff1690811115611ade57611ade614e1c565b1480611b0e575060066000828152600a602081905260409091205460ff1690811115611b0c57611b0c614e1c565b145b80611b61575060056000828152600a602081905260409091205460ff1690811115611b3b57611b3b614e1c565b148015611b6157506000818152600a60205260409020600201544263ffffffff90911611155b15611b7157611b71816001613130565b506001016119f9565b604080516101a08101825260008082526020820181905291810182905260608082018390526080820183905260a0820183905260c0820183905260e08201839052610100820183905261012082019290925261014081018290526101608101829052610180810191909152604080516101a0810182526005805460ff8116835261010080820461ffff9081166020860152630100000083041694840194909452600160281b810462ffffff166060840152600160401b810463ffffffff9081166080850152600160601b8204811660a0850152600160801b8204811660c0850152600160a01b82041660e0840152600160c01b90046001600160401b0316928201929092526006546101208201526007805491929161014084019190611c9f90614fad565b80601f0160208091040260200160405190810160405280929190818152602001828054611ccb90614fad565b8015611d185780601f10611ced57610100808354040283529160200191611d18565b820191906000526020600020905b815481529060010190602001808311611cfb57829003601f168201915b50505050508152602001600382018054611d3190614fad565b80601f0160208091040260200160405190810160405280929190818152602001828054611d5d90614fad565b8015611daa5780601f10611d7f57610100808354040283529160200191611daa565b820191906000526020600020905b815481529060010190602001808311611d8d57829003601f168201915b50505050508152602001600482018054611dc390614fad565b80601f0160208091040260200160405190810160405280929190818152602001828054611def90614fad565b8015611e3c5780601f10611e1157610100808354040283529160200191611e3c565b820191906000526020600020905b815481529060010190602001808311611e1f57829003601f168201915b505050505081525050905090565b336000908152600c602052604090205460ff1680611e7257506004546001600160a01b031633145b611e8e5760405162461bcd60e51b815260040161066f90615936565b60016000838152600a602081905260409091205460ff1690811115611eb557611eb5614e1c565b1480611ee5575060046000838152600a602081905260409091205460ff1690811115611ee357611ee3614e1c565b145b611f1b5760405162461bcd60e51b8152602060048201526007602482015266125b9d985b1a5960ca1b604482015260640161066f565b6000828152600a60205260409020600201544263ffffffff9091161015611f6f5760405162461bcd60e51b8152602060048201526008602482015267746f6f206c61746560c01b604482015260640161066f565b60055463ffffffff600160a01b90910481169082161115611fc35760405162461bcd60e51b815260206004820152600e60248201526d44656c617920746f6f206c6f6e6760901b604482015260640161066f565b6000828152600a60205260409020805460ff19166002179055611fe68142615666565b6000838152600a6020526040808220600201805463ffffffff949094166401000000000267ffffffff000000001990941693909317909255905183917fe4142e56e449251d27732d585248d507994e400fc19184ce6158f1263cdc9e1b91a25050565b6120516130c0565b6001600160a01b03811661207b57604051631e4fbdf760e01b81526000600482015260240161066f565b61208481613939565b50565b6000818152600a60205260409020548190600160281b90046001600160a01b03163314806120ce57506000818152600a60205260409020600101546001600160a01b031633145b806120e85750336000908152600c602052604090205460ff165b6121435760405162461bcd60e51b815260206004820152602660248201527f4e6f7420416476657274697365722f436f6e74656e7443726561746f72206f726044820152651020b236b4b760d11b606482015260840161066f565b6000828152600a602081905260409091205460ff1690600990829081111561216d5761216d614e1c565b036121aa5760405162461bcd60e51b815260206004820152600d60248201526c13d999995c88115e1c1a5c9959609a1b604482015260640161066f565b6000838152600a602081905260409091205460ff16818111156121cf576121cf614e1c565b0361220e5760405162461bcd60e51b815260206004820152600f60248201526e13d999995c8810d85b98d95b1b1959608a1b604482015260640161066f565b60086000848152600a602081905260409091205460ff169081111561223557612235614e1c565b036122735760405162461bcd60e51b815260206004820152600e60248201526d4f6666657220436f6d706c65746560901b604482015260640161066f565b6000838152600a602081905260408220805460ff191682179055829081111561229e5761229e614e1c565b03612344576000838152600a6020526040902054600160281b90046001600160a01b03163314806122de5750336000908152600c602052604090205460ff165b61232a5760405162461bcd60e51b815260206004820152601760248201527f4e6f742061647665727469736572206f722061646d696e000000000000000000604482015260640161066f565b61233560028461366b565b5061233f83613677565b61243d565b6000838152600a60205260409020600101546001600160a01b031633148061237b5750336000908152600c602052604090205460ff165b6123be5760405162461bcd60e51b81526020600482015260146024820152732737ba1031b932b0ba37b91037b91030b236b4b760611b604482015260640161066f565b6123c781613989565b1561243d576123d760028461366b565b506000838152600a60205260408120600181015460039091015461240891600160a01b900463ffffffff1690615908565b6000858152600a602052604090205460015491925061243b916001600160a01b0390811691600160281b900416836137e3565b505b6000838152600a60205260409081902054905184917fd5134925260b35dade0b2f16307d76b912819d60fc8c7efc607adec824899de49161248591859160ff9091169061591b565b60405180910390a2505050565b336000908152600c602052604090205460ff16806124ba57506004546001600160a01b031633145b6124d65760405162461bcd60e51b815260040161066f90615936565b6000828152600a6020526040902060010154600160c01b900463ffffffff166125385760405162461bcd60e51b815260206004820152601460248201527313d999995c88191bd95cc81b9bdd08195e1a5cdd60621b604482015260640161066f565b6000828152600a6020819052604082205460ff169081111561255c5761255c614e1c565b1461259d5760405162461bcd60e51b81526020600482015260116024820152704f66666572206e6f742070656e64696e6760781b604482015260640161066f565b6000828152600a602052604090206001015442600160e01b90910463ffffffff1610156125fc5760405162461bcd60e51b815260206004820152600d60248201526c13d999995c88195e1c1a5c9959609a1b604482015260640161066f565b6000828152600a602052604090819020600381015460015491549251636eb1769f60e11b8152600160281b9093046001600160a01b039081166004850152306024850152909291169063dd62ed3e90604401602060405180830381865afa15801561266b573d6000803e3d6000fd5b505050506040513d601f19601f8201168201806040525081019061268f919061564d565b10156126f15760405162461bcd60e51b815260206004820152602b60248201527f496e73756666696369656e74205553444320616c6c6f77616e63652066726f6d60448201526a1030b23b32b93a34b9b2b960a91b606482015260840161066f565b6000828152600a6020526040908190206003810154600154915492516370a0823160e01b8152600160281b9093046001600160a01b03908116600485015290929116906370a0823190602401602060405180830381865afa15801561275a573d6000803e3d6000fd5b505050506040513d601f19601f8201168201806040525081019061277e919061564d565b10156127de5760405162461bcd60e51b815260206004820152602960248201527f496e73756666696369656e7420555344432062616c616e63652066726f6d2061604482015268323b32b93a34b9b2b960b91b606482015260840161066f565b6000828152600a60205260409020805460ff191660011781556007015461280b9063ffffffff1642615666565b6000838152600a6020526040902060028101805463ffffffff191663ffffffff938416179055600180820180546001600160a01b0319166001600160a01b038681169190911791829055925460045492546128839590851694600160281b90920482169390911691600160a01b9004811690613a4d16565b6000828152600a60205260409020805460018201546003909201546128e192600160281b9092046001600160a01b03169130916128cd91600160a01b900463ffffffff1690615908565b6001546001600160a01b0316929190613a4d565b6000828152600a602090815260409182902060020154825163ffffffff90911681526001600160a01b0384169181019190915283917f8ca396c89cbf05f9a88f7e5dc542064383446299ebeccbe6fa213d55bdbe00b0910160405180910390a25050565b60606000826001600160401b038111156129615761296161478b565b604051908082528060200260200182016040528015612a0757816020015b604080516101e0810182526000808252602080830182905292820181905260608083018290526080830182905260a0830182905260c0830182905260e08301829052610100830182905261012083018290526101408301829052610160830182905261018083018190526101a08301526101c0820152825260001990920191018161297f5790505b50905060005b83811015612c8757600a6000868684818110612a2b57612a2b6158f2565b60209081029290920135835250810191909152604090810160002081516101e081019092528054829060ff16600a811115612a6857612a68614e1c565b600a811115612a7957612a79614e1c565b8152815461ffff610100808304821660208501526301000000830490911660408401526001600160a01b03600160281b909204821660608401526001840154918216608084015263ffffffff600160a01b8304811660a0850152600160c01b8304811660c0850152600160e01b909204821660e08401526002840154808316918401919091526401000000009004166101208201526003820154610140820152600482015461016082015260058201805461018090920191612b3a90614fad565b80601f0160208091040260200160405190810160405280929190818152602001828054612b6690614fad565b8015612bb35780601f10612b8857610100808354040283529160200191612bb3565b820191906000526020600020905b815481529060010190602001808311612b9657829003601f168201915b50505050508152602001600682018054612bcc90614fad565b80601f0160208091040260200160405190810160405280929190818152602001828054612bf890614fad565b8015612c455780601f10612c1a57610100808354040283529160200191612c45565b820191906000526020600020905b815481529060010190602001808311612c2857829003601f168201915b50505091835250506007919091015463ffffffff166020909101528251839083908110612c7457612c746158f2565b6020908102919091010152600101612a0d565b5090505b92915050565b6000838152600b60209081526040808320805490849055808452600a9283905292205460ff16906003908290811115612ccc57612ccc614e1c565b1480612cfc575060026000838152600a602081905260409091205460ff1690811115612cfa57612cfa614e1c565b145b15612dae57825115612d945760026000838152600a602081905260409091205460ff1690811115612d2f57612d2f614e1c565b14612d3b576004612d3e565b60025b6000838152600a602081905260409091208054909160ff19909116906001908490811115612d6e57612d6e614e1c565b02179055506000828152600a60205260409020600501612d8e8482615683565b50612dae565b6000828152600a60205260409020805460ff191660051790555b60066000838152600a602081905260409091205460ff1690811115612dd557612dd5614e1c565b0361306957825115612e0d576000828152600a60205260409020805460ff19166007178155600601612e078482615683565b50613069565b600084806020019051810190612e23919061564d565b6000848152600a60205260409020805460ff191660081790559050612e4960028461366b565b506000838152600a602052604081205461271090612e7090610100900461ffff16846155f9565b612e7a9190615626565b6000858152600a60205260408120549192509061271090612ea6906301000000900461ffff16856155f9565b612eb09190615626565b9050612ebc8184615908565b6000868152600a602052604090206004810191909155600181015460039091015483918391612ef891600160a01b900463ffffffff1690615908565b612f029190615908565b612f0c9190615908565b6000868152600a60205260409020600401541115612f5a5760405162461bcd60e51b815260206004820152600b60248201526a08af0c6cacac8e640dac2f60ab1b604482015260640161066f565b6000858152600a602052604081206001810154600482015460039092015485928592600160a01b900463ffffffff1691612f949190615908565b612f9e9190615908565b612fa89190615908565b612fb29190615908565b6000878152600a60205260409020600401549091501561302d57600454612ff9906001600160a01b0316612fe6858561563a565b6001546001600160a01b031691906137e3565b6000868152600a60205260409020600180820154600490920154905461302d926001600160a01b03918216929116906137e3565b8015613064576000868152600a6020526040902054600154613064916001600160a01b0391821691600160281b90910416836137e3565b505050505b6000828152600a602052604090819020549051869184917fbd75132b694033ab98c58cce9a6bd9d02eacaff56b6809dbc4e1ced16fa8cddf916130b191869160ff169061591b565b60405180910390a35050505050565b6000546001600160a01b031633146112115760405163118cdaa760e01b815233600482015260240161066f565b60006130f98383613a86565b9392505050565b6000428263ffffffff16111580156130f9575060025b83600a81111561312857613128614e1c565b149392505050565b6131716040805160e0810190915280600081526020016000815260200160008152602001606081526020016060815260200160608152602001606081525090565b6132336000808085600181111561318a5761318a614e1c565b14613196576009613199565b60085b80546131a490614fad565b80601f01602080910402602001604051908101604052809291908181526020018280546131d090614fad565b801561321d5780601f106131f25761010080835404028352916020019161321d565b820191906000526020600020905b81548152906001019060200180831161320057829003601f168201915b505050505084613ad5909392919063ffffffff16565b600160208201526007805461324790614fad565b80601f016020809104026020016040519081016040528092919081815260200182805461327390614fad565b80156132c05780601f10613295576101008083540402835291602001916132c0565b820191906000526020600020905b8154815290600101906020018083116132a357829003601f168201915b505050505060808201526000838152600a60205260408120546132ee90610100900461ffff1661271061599d565b6000858152600a60205260409020600181015460039091015461ffff929092169161332691600160a01b900463ffffffff1690615908565b613332906127106155f9565b61333c9190615626565b60408051600480825260a0820190925291925060009190816020015b60608152602001906001900390816133585750506040805160208101889052919250016040516020818303038152906040528160008151811061339d5761339d6158f2565b6020908102919091018101919091526000868152600a8252604090819020600101549051600160c01b90910460e01b6001600160e01b0319169181019190915260240160405160208183030381529060405281600181518110613402576134026158f2565b60200260200101819052508160405160200161342091815260200190565b60405160208183030381529060405281600281518110613442576134426158f2565b6020908102919091018101919091526000868152600a825260409081902060070154905161348c9263ffffffff909216910160e09190911b6001600160e01b031916815260040190565b604051602081830303815290604052816003815181106134ae576134ae6158f2565b60209081029190910101526134c38382613b53565b60006134fa6134d185613b7d565b600554600654600160c01b82046001600160401b031691600160281b900462ffffff1690613e45565b6000818152600b6020526040812088905590915085600181111561352057613520614e1c565b1461352c57600661352f565b60035b6000878152600a602081905260409091208054909160ff1990911690600190849081111561355f5761355f614e1c565b02179055506000868152600a602052604090819020549051829188917f1745bf3357b4b1bbbf23ca8975bfc5cb758b10c48127adaf0e84a13e0c5b85a4916135ac9160ff909116906159b8565b60405180910390a3505050505050565b6000428263ffffffff161080156135e45750600084600a8111156135e2576135e2614e1c565b145b806136635750428363ffffffff161080156136635750600184600a81111561360e5761360e614e1c565b148061362b5750600284600a81111561362957613629614e1c565b145b806136475750600384600a81111561364557613645614e1c565b145b806136635750600484600a81111561366157613661614e1c565b145b949350505050565b60006130f98383613f17565b6001546000828152600a60205260408082205490516370a0823160e01b8152600160281b9091046001600160a01b039081166004830152919261378f9216906370a0823190602401602060405180830381865afa1580156136dc573d6000803e3d6000fd5b505050506040513d601f19601f82011682018060405250810190613700919061564d565b6001546000858152600a602052604090819020549051636eb1769f60e11b81526001600160a01b03600160281b9092048216600482015230602482015291169063dd62ed3e90604401602060405180830381865afa158015613766573d6000803e3d6000fd5b505050506040513d601f19601f8201168201806040525081019061378a919061564d565b614011565b6000838152600a6020526040812060030154919250906137af9083614011565b6000848152600a602052604090205460015491925061064d916001600160a01b0390811691600160281b9004168084613a4d565b6040516001600160a01b0383811660248301526044820183905261064d91859182169063a9059cbb906064015b604051602081830303815290604052915060e01b6020820180516001600160e01b038381831617835250505050614027565b6000428263ffffffff16111580156130f957506005613116565b6000612c8b825490565b60006130f9838361408a565b6060600083516001613884919061563a565b6001600160401b0381111561389b5761389b61478b565b6040519080825280602002602001820160405280156138c4578160200160208202803683370190505b50905060005b8451811015613912578481815181106138e5576138e56158f2565b60200260200101518282815181106138ff576138ff6158f2565b60209081029190910101526001016138ca565b508281855181518110613927576139276158f2565b60209081029190910101529392505050565b600080546001600160a01b038381166001600160a01b0319831681178455604051919092169283917f8be0079c531659141344cd1fd0a4f28419497f9722a3daafe3b4186f6b6457e09190a35050565b6000600182600a81111561399f5761399f614e1c565b14806139bc5750600282600a8111156139ba576139ba614e1c565b145b806139d85750600382600a8111156139d6576139d6614e1c565b145b806139f45750600482600a8111156139f2576139f2614e1c565b145b80613a105750600582600a811115613a0e57613a0e614e1c565b145b80613a2c5750600782600a811115613a2a57613a2a614e1c565b145b80612c8b5750600682600a811115613a4657613a46614e1c565b1492915050565b6040516001600160a01b038481166024830152838116604483015260648201839052610e429186918216906323b872dd90608401613810565b6000818152600183016020526040812054613acd57508154600181810184556000848152602080822090930184905584548482528286019093526040902091909155612c8b565b506000612c8b565b8051600003613af7576040516322ce3edd60e01b815260040160405180910390fd5b83836002811115613b0a57613b0a614e1c565b90816002811115613b1d57613b1d614e1c565b90525060408401828015613b3357613b33614e1c565b90818015613b4357613b43614e1c565b9052506060909301929092525050565b8051600003613b755760405163fe936cb760e01b815260040160405180910390fd5b60c090910152565b60606000613b8c6101006140b4565b9050613bc56040518060400160405280600c81526020016b31b7b232a637b1b0ba34b7b760a11b815250826140d590919063ffffffff16565b8251613be3906002811115613bdc57613bdc614e1c565b82906140ee565b6040805180820190915260088152676c616e677561676560c01b6020820152613c0d9082906140d5565b6040830151613c24908015613bdc57613bdc614e1c565b604080518082019091526006815265736f7572636560d01b6020820152613c4c9082906140d5565b6060830151613c5c9082906140d5565b60a08301515115613ce8576040805180820190915260048152636172677360e01b6020820152613c8d9082906140d5565b613c9681614127565b60005b8360a0015151811015613cde57613cd68460a001518281518110613cbf57613cbf6158f2565b6020026020010151836140d590919063ffffffff16565b600101613c99565b50613ce88161414b565b60808301515115613dac57600083602001516002811115613d0b57613d0b614e1c565b03613d295760405163a80d31f760e01b815260040160405180910390fd5b60408051808201909152600f81526e39b2b1b932ba39a637b1b0ba34b7b760891b6020820152613d5a9082906140d5565b613d7383602001516002811115613bdc57613bdc614e1c565b6040805180820190915260078152667365637265747360c81b6020820152613d9c9082906140d5565b6080830151613dac908290614169565b60c08301515115613e3d5760408051808201909152600981526862797465734172677360b81b6020820152613de29082906140d5565b613deb81614127565b60005b8360c0015151811015613e3357613e2b8460c001518281518110613e1457613e146158f2565b60200260200101518361416990919063ffffffff16565b600101613dee565b50613e3d8161414b565b515192915050565b6000807f00000000000000000000000000000000000000000000000000000000000000006001600160a01b031663461d27628688600188886040518663ffffffff1660e01b8152600401613e9d9594939291906159c6565b6020604051808303816000875af1158015613ebc573d6000803e3d6000fd5b505050506040513d601f19601f82011682018060405250810190613ee0919061564d565b60405190915081907f1131472297a800fee664d1d89cfa8f7676ff07189ecc53f80bbb5f4969099db890600090a295945050505050565b60008181526001830160205260408120548015614000576000613f3b600183615908565b8554909150600090613f4f90600190615908565b9050808214613fb4576000866000018281548110613f6f57613f6f6158f2565b9060005260206000200154905080876000018481548110613f9257613f926158f2565b6000918252602080832090910192909255918252600188019052604090208390555b8554869080613fc557613fc5615a0f565b600190038181906000526020600020016000905590558560010160008681526020019081526020016000206000905560019350505050612c8b565b6000915050612c8b565b5092915050565b600081831061402057816130f9565b5090919050565b600061403c6001600160a01b03841683614176565b9050805160001415801561406157508080602001905181019061405f9190615a25565b155b1561064d57604051635274afe760e01b81526001600160a01b038416600482015260240161066f565b60008260000182815481106140a1576140a16158f2565b9060005260206000200154905092915050565b6140bc614644565b80516140c89083614184565b5060006020820152919050565b6140e282600383516141fb565b815161064d9082614314565b81516140fb9060c2614335565b50611048828260405160200161411391815260200190565b604051602081830303815290604052614169565b61413281600461439e565b600181602001818151614145919061563a565b90525050565b61415681600761439e565b6001816020018181516141459190615908565b6140e282600283516141fb565b60606130f9838360006143b5565b6040805180820190915260608152600060208201526141a4602083615a42565b156141cc576141b4602083615a42565b6141bf906020615908565b6141c9908361563a565b91505b6020808401839052604051808552600081529081840101818110156141f057600080fd5b604052509192915050565b6017816001600160401b031611614221578251610e429060e0600585901b168317614335565b60ff816001600160401b031611614261578251614249906018611fe0600586901b1617614335565b508251610e42906001600160401b0383166001614452565b61ffff816001600160401b0316116142a257825161428a906019611fe0600586901b1617614335565b508251610e42906001600160401b0383166002614452565b63ffffffff816001600160401b0316116142e55782516142cd90601a611fe0600586901b1617614335565b508251610e42906001600160401b0383166004614452565b82516142fc90601b611fe0600586901b1617614335565b508251610e42906001600160401b0383166008614452565b6040805180820190915260608152600060208201526130f9838384516144d7565b604080518082019091526060815260006020820152825151600061435a82600161563a565b90508460200151821061437b5761437b856143768360026155f9565b6145a8565b8451602083820101858153508051821115614394578181525b5093949350505050565b815161064d90601f611fe0600585901b1617614335565b6060814710156143da5760405163cd78605960e01b815230600482015260240161066f565b600080856001600160a01b031684866040516143f69190615a56565b60006040518083038185875af1925050503d8060008114614433576040519150601f19603f3d011682016040523d82523d6000602084013e614438565b606091505b50915091506144488683836145bf565b9695505050505050565b6040805180820190915260608152600060208201528351516000614476828561563a565b9050856020015181111561449357614493866143768360026155f9565b600060016144a386610100615b56565b6144ad9190615908565b905086518281018783198251161781525080518311156144cb578281525b50959695505050505050565b60408051808201909152606081526000602082015282518211156144fa57600080fd5b8351516000614509848361563a565b9050856020015181111561452657614526866143768360026155f9565b855180518382016020019160009180851115614540578482525b505050602086015b60208610614580578051825261455f60208361563a565b915061456c60208261563a565b9050614579602087615908565b9550614548565b51815160001960208890036101000a0190811690199190911617905250849150509392505050565b81516145b48383614184565b50610e428382614314565b6060826145d4576145cf8261461b565b6130f9565b81511580156145eb57506001600160a01b0384163b155b1561461457604051639996b31560e01b81526001600160a01b038516600482015260240161066f565b50806130f9565b80511561462b5780518082602001fd5b604051630a12f52160e11b815260040160405180910390fd5b604051806040016040528061466c604051806040016040528060608152602001600081525090565b8152602001600081525090565b60005b8381101561469457818101518382015260200161467c565b50506000910152565b600081518084526146b5816020860160208601614679565b601f01601f19169290920160200192915050565b60ff8e16815261ffff8d16602082015261ffff8c16604082015262ffffff8b16606082015263ffffffff8a16608082015263ffffffff891660a082015263ffffffff881660c082015263ffffffff871660e08201526001600160401b038616610100820152846101208201526101a0610140820152600061474e6101a083018661469d565b828103610160840152614761818661469d565b9050828103610180840152614776818561469d565b9150509e9d5050505050505050505050505050565b634e487b7160e01b600052604160045260246000fd5b60405160a081016001600160401b03811182821017156147c3576147c361478b565b60405290565b604051601f8201601f191681016001600160401b03811182821017156147f1576147f161478b565b604052919050565b600082601f83011261480a57600080fd5b81356001600160401b038111156148235761482361478b565b614836601f8201601f19166020016147c9565b81815284602083860101111561484b57600080fd5b816020850160208301376000918101602001919091529392505050565b60008060006060848603121561487d57600080fd5b8335925060208401356001600160401b038082111561489b57600080fd5b6148a7878388016147f9565b935060408601359150808211156148bd57600080fd5b506148ca868287016147f9565b9150509250925092565b80356001600160a01b03811681146148eb57600080fd5b919050565b60006020828403121561490257600080fd5b6130f9826148d4565b60006020828403121561491d57600080fd5b81356001600160401b0381111561493357600080fd5b82016101a081850312156130f957600080fd5b63ffffffff8116811461208457600080fd5b60ff8116811461208457600080fd5b60008060008060008060008060006101208a8c03121561498657600080fd5b8935985061499660208b016148d4565b975060408a0135965060608a01356149ad81614946565b955060808a01356149bd81614946565b945060a08a0135935060c08a01356149d481614958565b8093505060e08a013591506101008a013590509295985092959850929598565b60008060208385031215614a0757600080fd5b82356001600160401b0380821115614a1e57600080fd5b818501915085601f830112614a3257600080fd5b813581811115614a4157600080fd5b866020828501011115614a5357600080fd5b60209290920196919550909350505050565b6020815260006130f9602083018461469d565b801515811461208457600080fd5b60008060408385031215614a9957600080fd5b823591506020830135614aab81614a78565b809150509250929050565b8215158152604060208201526000613663604083018461469d565b60006001600160401b03821115614aea57614aea61478b565b5060051b60200190565b60006020808385031215614b0757600080fd5b82356001600160401b03811115614b1d57600080fd5b8301601f81018513614b2e57600080fd5b8035614b41614b3c82614ad1565b6147c9565b81815260a09182028301840191848201919088841115614b6057600080fd5b938501935b83851015614bd75780858a031215614b7d5760008081fd5b614b856147a1565b85358152614b948787016148d4565b8188015260408681013590820152606080870135614bb181614946565b90820152608086810135614bc481614946565b9082015283529384019391850191614b65565b50979650505050505050565b60008060008060808587031215614bf957600080fd5b84359350602085013592506040850135614c1281614946565b91506060850135614c2281614946565b939692955090935050565b60008060208385031215614c4057600080fd5b82356001600160401b0380821115614c5757600080fd5b818501915085601f830112614c6b57600080fd5b813581811115614c7a57600080fd5b8660208260051b8501011115614a5357600080fd5b60208152614ca360208201835160ff169052565b60006020830151614cba604084018261ffff169052565b50604083015161ffff8116606084015250606083015162ffffff8116608084015250608083015163ffffffff811660a08401525060a083015163ffffffff811660c08401525060c083015163ffffffff811660e08401525060e0830151610100614d2b8185018363ffffffff169052565b8401519050610120614d47848201836001600160401b03169052565b840151610140848101919091528401516101a061016080860182905291925090614d756101c086018461469d565b9250808601519050601f19610180818786030181880152614d96858461469d565b908801518782039092018488015293509050614448838261469d565b60008060408385031215614dc557600080fd5b823591506020830135614aab81614946565b600060208284031215614de957600080fd5b5035919050565b60008060408385031215614e0357600080fd5b82359150614e13602084016148d4565b90509250929050565b634e487b7160e01b600052602160045260246000fd5b600b8110614e5057634e487b7160e01b600052602160045260246000fd5b9052565b600060208083018184528085518083526040925060408601915060408160051b87010184880160005b83811015614f9f57603f1989840301855281516101e0614e9e858351614e32565b8882015161ffff908116868b01528883015116888601526060808301516001600160a01b03908116918701919091526080808401519091169086015260a08083015163ffffffff9081169187019190915260c08084015182169087015260e0808401518216908701526101008084015182169087015261012080840151909116908601526101408083015190860152610160808301519086015261018080830151818701839052614f518388018261469d565b925050506101a08083015186830382880152614f6d838261469d565b925050506101c0808301519250614f8b8187018463ffffffff169052565b509588019593505090860190600101614e7d565b509098975050505050505050565b600181811c90821680614fc157607f821691505b602082108103614fe157634e487b7160e01b600052602260045260246000fd5b50919050565b60008154614ff481614fad565b808552602060018381168015615011576001811461502b57615059565b60ff1985168884015283151560051b880183019550615059565b866000528260002060005b858110156150515781548a8201860152908301908401615036565b890184019650505b505050505092915050565b602081526000825461507e6020840160ff831660ff169052565b61ffff600882901c81166040850152601882901c8116606085015250602881901c62ffffff16608084015263ffffffff604082901c811660a0850152606082901c811660c08501526150dd60e08501828460801c1663ffffffff169052565b6150f56101008501828460a01c1663ffffffff169052565b5060c01c61012083015260018301546101408301526101a061016083018190526151266101c0840160028601614fe7565b601f1980858303016101808601526151418260038801614fe7565b91508085830301838601525061515a8160048701614fe7565b95945050505050565b60008135612c8b81614958565b6000813561ffff81168114612c8b57600080fd5b6000813562ffffff81168114612c8b57600080fd5b60008135612c8b81614946565b600081356001600160401b0381168114612c8b57600080fd5b6000808335601e198436030181126151d657600080fd5b8301803591506001600160401b038211156151f057600080fd5b6020019150368190038213156111cc57600080fd5b601f82111561064d576000816000526020600020601f850160051c8101602086101561522e5750805b601f850160051c820191505b8181101561524d5782815560010161523a565b505050505050565b6001600160401b0383111561526c5761526c61478b565b6152808361527a8354614fad565b83615205565b6000601f8411600181146152b4576000851561529c5750838201355b600019600387901b1c1916600186901b17835561530e565b600083815260209020601f19861690835b828110156152e557868501358255602094850194600190920191016152c5565b50868210156153025760001960f88860031b161c19848701351681555b505060018560011b0183555b5050505050565b61533261532183615163565b825460ff191660ff91909116178255565b61535961534160208401615170565b825462ffff00191660089190911b62ffff0016178255565b61538461536860408401615170565b825464ffff000000191660189190911b64ffff00000016178255565b6153b561539360608401615184565b825467ffffff0000000000191660289190911b67ffffff000000000016178255565b6153ee6153c460808401615199565b82546bffffffff0000000000000000191660409190911b6bffffffff000000000000000016178255565b6154216153fd60a08401615199565b82805463ffffffff60601b191660609290921b63ffffffff60601b16919091179055565b61545461543060c08401615199565b82805463ffffffff60801b191660809290921b63ffffffff60801b16919091179055565b61548761546360e08401615199565b82805463ffffffff60a01b191660a09290921b63ffffffff60a01b16919091179055565b6154bb61549761010084016151a6565b8280546001600160c01b031660c09290921b6001600160c01b031916919091179055565b61012082013560018201556154d46101408301836151bf565b6154e2818360028601615255565b50506154f26101608301836151bf565b615500818360038601615255565b50506155106101808301836151bf565b610e42818360048601615255565b6020808252600f908201526e125b9d985b1a59081bd999995c9259608a1b604082015260600190565b6020808252601490820152734f6666657220616c72656164792065786973747360601b604082015260600190565b6020808252601f908201527f416363657074616e63654475726174696f6e20697320746f6f2073686f727400604082015260600190565b6020808252601a908201527f4f666665724475726174696f6e20697320746f6f2073686f7274000000000000604082015260600190565b634e487b7160e01b600052601160045260246000fd5b8082028115828204841417612c8b57612c8b6155e3565b634e487b7160e01b600052601260045260246000fd5b60008261563557615635615610565b500490565b80820180821115612c8b57612c8b6155e3565b60006020828403121561565f57600080fd5b5051919050565b63ffffffff81811683821601908082111561400a5761400a6155e3565b81516001600160401b0381111561569c5761569c61478b565b6156b0816156aa8454614fad565b84615205565b602080601f8311600181146156e557600084156156cd5750858301515b600019600386901b1c1916600185901b17855561524d565b600085815260208120601f198616915b82811015615714578886015182559484019460019091019084016156f5565b50858210156157325787850151600019600388901b60f8161c191681555b5050505050600190811b01905550565b602081526000825461575a6020840160ff8316614e32565b61ffff600882901c81166040850152601882901c811660608501525060281c6001600160a01b039081166080840152600184015490811660a08085019190915281901c63ffffffff90811660c08086019190915282901c811660e085015260e082901c610100850152600285015463ffffffff8282161661012086015291506157f16101408501828460201c1663ffffffff169052565b5050600383015461016083015260048301546101808301526101e0806101a0840152615824610200840160058601614fe7565b838103601f19016101c085015261583e8160068701614fe7565b9050615851600786015463ffffffff1690565b63ffffffff16919093015250919050565b6000602080838503121561587557600080fd5b82356001600160401b0381111561588b57600080fd5b8301601f8101851361589c57600080fd5b80356158aa614b3c82614ad1565b81815260059190911b820183019083810190878311156158c957600080fd5b928401925b828410156158e7578335825292840192908401906158ce565b979650505050505050565b634e487b7160e01b600052603260045260246000fd5b81810381811115612c8b57612c8b6155e3565b604081016159298285614e32565b6130f96020830184614e32565b6020808252600990820152682737ba1030b236b4b760b91b604082015260600190565b6020808252825182820181905260009190848201906040850190845b8181101561599157835183529284019291840191600101615975565b50909695505050505050565b61ffff81811683821601908082111561400a5761400a6155e3565b60208101612c8b8284614e32565b6001600160401b038616815260a0602082015260006159e860a083018761469d565b61ffff9590951660408301525063ffffffff92909216606083015260809091015292915050565b634e487b7160e01b600052603160045260246000fd5b600060208284031215615a3757600080fd5b81516130f981614a78565b600082615a5157615a51615610565b500690565b60008251615a68818460208701614679565b9190910192915050565b600181815b80851115615aad578160001904821115615a9357615a936155e3565b80851615615aa057918102915b93841c9390800290615a77565b509250929050565b600082615ac457506001612c8b565b81615ad157506000612c8b565b8160018114615ae75760028114615af157615b0d565b6001915050612c8b565b60ff841115615b0257615b026155e3565b50506001821b612c8b565b5060208310610133831016604e8410600b8410161715615b30575081810a612c8b565b615b3a8383615a72565b8060001904821115615b4e57615b4e6155e3565b029392505050565b60006130f98383615ab556fea2646970667358221220404d5c951dbb3440e5a8b9534b2fc5b510b1bdc6c15b5fac674f3d1d5f95a75f64736f6c63430008180033","linkReferences":{}},"methodIdentifiers":{"acceptOffer(bytes32,address)":"fcc959de","addAdmin(address)":"70480275","batchCreateOffers((bytes32,address,uint256,uint32,uint32)[])":"8320f918","cancelOffer(bytes32)":"f952279e","checkUpkeep(bytes)":"6e04ff0d","createOffer(bytes32,uint256,uint32,uint32)":"87308d26","createOfferWithPermit(bytes32,address,uint256,uint32,uint32,uint256,uint8,bytes32,bytes32)":"2e4a876f","getConfig()":"c3f909d4","getOffers(bytes32[])":"ffdd08e0","handleOracleFulfillment(bytes32,bytes,bytes)":"0ca76175","owner()":"8da5cb5b","performUpkeep(bytes)":"4585e33b","removeAdmin(address)":"1785f53c","renounceOwnership()":"715018a6","retryRequests(bytes32[])":"c2e3da76","s_config()":"088070f5","setConfig((uint8,uint16,uint16,uint24,uint32,uint32,uint32,uint32,uint64,bytes32,bytes,string,string))":"2652c0de","setVerificationStatus(bytes32,bool)":"60457034","submitTweet(bytes32,uint32)":"ce48563d","transferOwnership(address)":"f2fde38b","version()":"54fd4d50"},"id":0}