{"abi":[{"type":"constructor","inputs":[{"name":"_usdcTokenAddress","type":"address","internalType":"address"},{"name":"_tunnlTwitterOffersAddress","type":"address","internalType":"address"}],"stateMutability":"nonpayable"},{"type":"function","name":"permitAndCreateOffer","inputs":[{"name":"offerId","type":"bytes32","internalType":"bytes32"},{"name":"brand","type":"address","internalType":"address"},{"name":"maxPaymentUsdc","type":"uint256","internalType":"uint256"},{"name":"acceptanceDurationSeconds","type":"uint32","internalType":"uint32"},{"name":"offerDurationSeconds","type":"uint32","internalType":"uint32"},{"name":"deadline","type":"uint256","internalType":"uint256"},{"name":"v","type":"uint8","internalType":"uint8"},{"name":"r","type":"bytes32","internalType":"bytes32"},{"name":"s","type":"bytes32","internalType":"bytes32"}],"outputs":[],"stateMutability":"nonpayable"},{"type":"function","name":"tunnlTwitterOffers","inputs":[],"outputs":[{"name":"","type":"address","internalType":"contract ITunnlTwitterOffers"}],"stateMutability":"view"},{"type":"function","name":"usdcToken","inputs":[],"outputs":[{"name":"","type":"address","internalType":"contract IERC20Permit"}],"stateMutability":"view"}],"bytecode":{"object":"0x608060405234801561001057600080fd5b5060405161024d38038061024d83398101604081905261002f9161007c565b600080546001600160a01b039384166001600160a01b031991821617909155600180549290931691161790556100af565b80516001600160a01b038116811461007757600080fd5b919050565b6000806040838503121561008f57600080fd5b61009883610060565b91506100a660208401610060565b90509250929050565b61018f806100be6000396000f3fe608060405234801561001057600080fd5b50600436106100415760003560e01c806311eac85514610046578063277ad13f14610075578063d24fe02d14610088575b600080fd5b600054610059906001600160a01b031681565b6040516001600160a01b03909116815260200160405180910390f35b600154610059906001600160a01b031681565b6100a16100963660046100bc565b505050505050505050565b005b803563ffffffff811681146100b757600080fd5b919050565b60008060008060008060008060006101208a8c0312156100db57600080fd5b8935985060208a01356001600160a01b03811681146100f957600080fd5b975060408a0135965061010e60608b016100a3565b955061011c60808b016100a3565b945060a08a0135935060c08a013560ff8116811461013957600080fd5b8093505060e08a013591506101008a01359050929598509295985092959856fea26469706673582212203498e696245e766c94c980326a30085eae14555b24108795d9a6cf141a682bcd64736f6c63430008180033","linkReferences":{}},"methodIdentifiers":{"permitAndCreateOffer(bytes32,address,uint256,uint32,uint32,uint256,uint8,bytes32,bytes32)":"d24fe02d","tunnlTwitterOffers()":"277ad13f","usdcToken()":"11eac855"},"id":1}