{"abi":[{"type":"function","name":"multicall","inputs":[{"name":"targets","type":"address[]","internalType":"address[]"},{"name":"data","type":"bytes[]","internalType":"bytes[]"}],"outputs":[],"stateMutability":"payable"}],"bytecode":{"object":"0x608060405234801561001057600080fd5b5061042d806100206000396000f3fe60806040526004361061001e5760003560e01c806363fb0b9614610023575b600080fd5b6100366100313660046102ee565b610038565b005b8281146100965760405162461bcd60e51b815260206004820152602160248201527f4d756c746943616c6c3a20417272617973206c656e677468206d69736d6174636044820152600d60fb1b60648201526084015b60405180910390fd5b60005b8381101561029b57806000036101995760008585838181106100bd576100bd61035a565b90506020020160208101906100d29190610370565b6001600160a01b03168484848181106100ed576100ed61035a565b90506020028101906100ff91906103a0565b60405161010d9291906103e7565b600060405180830381855af49150503d8060008114610148576040519150601f19603f3d011682016040523d82523d6000602084013e61014d565b606091505b50509050806101975760405162461bcd60e51b8152602060048201526016602482015275135d5b1d1a50d85b1b0e8810d85b1b0819985a5b195960521b604482015260640161008d565b505b806001036102935760008585838181106101b5576101b561035a565b90506020020160208101906101ca9190610370565b6001600160a01b03168484848181106101e5576101e561035a565b90506020028101906101f791906103a0565b6040516102059291906103e7565b6000604051808303816000865af19150503d8060008114610242576040519150601f19603f3d011682016040523d82523d6000602084013e610247565b606091505b50509050806102915760405162461bcd60e51b8152602060048201526016602482015275135d5b1d1a50d85b1b0e8810d85b1b0819985a5b195960521b604482015260640161008d565b505b600101610099565b5050505050565b60008083601f8401126102b457600080fd5b50813567ffffffffffffffff8111156102cc57600080fd5b6020830191508360208260051b85010111156102e757600080fd5b9250929050565b6000806000806040858703121561030457600080fd5b843567ffffffffffffffff8082111561031c57600080fd5b610328888389016102a2565b9096509450602087013591508082111561034157600080fd5b5061034e878288016102a2565b95989497509550505050565b634e487b7160e01b600052603260045260246000fd5b60006020828403121561038257600080fd5b81356001600160a01b038116811461039957600080fd5b9392505050565b6000808335601e198436030181126103b757600080fd5b83018035915067ffffffffffffffff8211156103d257600080fd5b6020019150368190038213156102e757600080fd5b818382376000910190815291905056fea26469706673582212206cc22c90c39c9a80f791949bee6eaf3031496535644972fc5318b8af60e1cc2464736f6c63430008180033","linkReferences":{}},"methodIdentifiers":{"multicall(address[],bytes[])":"63fb0b96"},"id":0}