{"abi":[{"type":"function","name":"fulfill","inputs":[{"name":"client","type":"address","internalType":"address"},{"name":"requestId","type":"bytes32","internalType":"bytes32"},{"name":"response","type":"bytes","internalType":"bytes"},{"name":"err","type":"bytes","internalType":"bytes"}],"outputs":[],"stateMutability":"nonpayable"},{"type":"function","name":"sendRequest","inputs":[{"name":"subscriptionId","type":"uint64","internalType":"uint64"},{"name":"data","type":"bytes","internalType":"bytes"},{"name":"dataVersion","type":"uint16","internalType":"uint16"},{"name":"callbackGasLimit","type":"uint32","internalType":"uint32"},{"name":"donId","type":"bytes32","internalType":"bytes32"}],"outputs":[{"name":"","type":"bytes32","internalType":"bytes32"}],"stateMutability":"pure"},{"type":"event","name":"FunctionsRequestSent","inputs":[{"name":"requestId","type":"bytes32","indexed":true,"internalType":"bytes32"},{"name":"subscriptionId","type":"uint64","indexed":false,"internalType":"uint64"},{"name":"data","type":"bytes","indexed":false,"internalType":"bytes"},{"name":"dataVersion","type":"uint16","indexed":false,"internalType":"uint16"},{"name":"callbackGasLimit","type":"uint32","indexed":false,"internalType":"uint32"},{"name":"donId","type":"bytes32","indexed":false,"internalType":"bytes32"}],"anonymous":false}],"bytecode":{"object":"0x608060405234801561001057600080fd5b50610436806100206000396000f3fe608060405234801561001057600080fd5b50600436106100365760003560e01c80631b7d0a2d1461003b578063461d276214610050575b600080fd5b61004e6100493660046101c0565b610075565b005b61006361005e366004610277565b6100dd565b60405190815260200160405180910390f35b604051630ca7617560e01b81526001600160a01b03851690630ca76175906100a590869086908690600401610373565b600060405180830381600087803b1580156100bf57600080fd5b505af11580156100d3573d6000803e3d6000fd5b5050505050505050565b60008686868686866040516020016100fa969594939291906103a8565b60408051808303601f190181529190528051602090910120979650505050505050565b634e487b7160e01b600052604160045260246000fd5b600082601f83011261014457600080fd5b813567ffffffffffffffff8082111561015f5761015f61011d565b604051601f8301601f19908116603f011681019082821181831017156101875761018761011d565b816040528381528660208588010111156101a057600080fd5b836020870160208301376000602085830101528094505050505092915050565b600080600080608085870312156101d657600080fd5b84356001600160a01b03811681146101ed57600080fd5b935060208501359250604085013567ffffffffffffffff8082111561021157600080fd5b61021d88838901610133565b9350606087013591508082111561023357600080fd5b5061024087828801610133565b91505092959194509250565b803561ffff8116811461025e57600080fd5b919050565b803563ffffffff8116811461025e57600080fd5b60008060008060008060a0878903121561029057600080fd5b863567ffffffffffffffff80821682146102a957600080fd5b909650602088013590808211156102bf57600080fd5b818901915089601f8301126102d357600080fd5b8135818111156102e257600080fd5b8a60208285010111156102f457600080fd5b60208301975080965050505061030c6040880161024c565b925061031a60608801610263565b9150608087013590509295509295509295565b6000815180845260005b8181101561035357602081850181015186830182015201610337565b506000602082860101526020601f19601f83011685010191505092915050565b83815260606020820152600061038c606083018561032d565b828103604084015261039e818561032d565b9695505050505050565b60c087901b6001600160c01b03191681528486600883013760f09390931b6001600160f01b0319166008939094019283019390935260e01b6001600160e01b031916600a820152600e810191909152602e019291505056fea264697066735822122010a84a6bbe4219fc6fc359251ae606333c0824f9473e1044f5f0b56bbd31968a64736f6c63430008180033","linkReferences":{}},"methodIdentifiers":{"fulfill(address,bytes32,bytes,bytes)":"1b7d0a2d","sendRequest(uint64,bytes,uint16,uint32,bytes32)":"461d2762"},"id":43}